:020000040800F2
:10000000100A002439030008314C0008D9420008C6
:10001000294C0008C9050008815A000800000000AA
:10002000000000000000000000000000914E0008E9
:10003000D105000800000000394C0008994E000866
:100040005303000853030008530300085303000838
:100050005303000853030008530300085303000828
:100060005303000853030008530300085303000818
:100070005303000853030008530300085303000808
:1000800053030008530300085303000853030008F8
:1000900053030008530300085303000853030008E8
:1000A00053030008530300085303000853030008D8
:1000B00053030008530300085303000853030008C8
:1000C00053030008E14200085303000853030008EB
:1000D00053030008615A0008715A000853030008CE
:1000E00053030008530300080000000053030008F6
:1000F0005303000853030008530300085303000888
:100100005303000853030008530300085303000877
:100110005303000853030008530300085303000867
:100120005303000853030008530300085303000857
:100130005303000853030008530300085303000847
:1001400000000000000000000000000000000000AF
:100150005303000853030008530300085303000827
:100160005303000853030008530300085303000817
:100170005303000853030008530300080000000065
:1001800053030008530300085303000853030008F7
:1001900053030008530300085303000853030008E7
:1001A00053030008530300085303000853030008D7
:1001B00053030008530300085303000853030008C7
:1001C00053030008530300085303000853030008B7
:1001D00053030008530300085303000853030008A7
:1001E0005303000853030008530300085303000897
:1001F0005303000853030008530300085303000887
:100200005303000853030008530300085303000876
:100210005303000853030008530300085303000866
:1002200053030008530300085303000800000000B4
:1002300053030008530300080000000053030008A4
:100240005303000853030008530300085303000836
:100250005303000853030008530300085303000826
:100260005303000853030008530300085303000816
:100270005303000853030008530300080000000064
:100280005303000853030008530300080000000054
:10029000000000005303000800F002F800F03CF8F2
:1002A0000AA090E8000C82448344AAF10107DA45D1
:1002B00001D100F031F8AFF2090EBAE80F0013F0E7
:1002C000010F18BFFB1A43F001031847845D0000BB
:1002D000A45D0000103A24BF78C878C1FAD852074C
:1002E00024BF30C830C144BF04680C6070470000B0
:1002F0000023002400250026103A28BF78C1FBD82F
:10030000520728BF30C148BF0B6070471FB505F0CA
:100310006FFE1FBD10B510BD00F0D0F81146FFF7FD
:10032000F5FF05F0B1FB00F0EEF803B4FFF7F2FFC4
:1003300003BC00F0F5F80000094880470948004771
:10034000FEE7FEE7FEE7FEE7FEE7FEE7FEE7FEE785
:10035000FEE7FEE704480549054A064B70470000E2
:10036000814F00089902000810040024100A00249C
:10037000100600241006002453EA020C00F06980E5
:100380002DE9F04B4FF00006002B1FBFB3FA83F5A9
:1003900003FA05F424FA05F65E4012BF1643B2FADA
:1003A00082F502FA05F4C5F120051EBF22FA05FC0C
:1003B00044EA0C04203556EA044C4FEA144418BFB2
:1003C000641C4FF000084FF00009904271EB030CE1
:1003D00039D3002919BFB1FA81F701FA07F6B0FA4B
:1003E00080F700FA07F6C7F120071EBF20FA07FCC6
:1003F00046EA0C062037B6FBF4FCA7EB0507103FD6
:1004000007F01F0BCBF120062CFA06F60CFA0BFBBB
:1004100044BFB3460026202FA4BF5E464FF0000B1A
:100420005BEA060C08BF4FF0010B19EB0B0948EB18
:100430000608ABFB027C06FB02CC0BFB03CCC01B0B
:1004400071EB0C01C1E70B46024641464846BDE848
:10045000F08B13B5084318BF4FF0FF300146AFF3E0
:100460000080BDE81C4070474FF0000200B5134605
:1004700094469646203922BFA0E80C50A0E80C50C4
:10048000B1F12001BFF4F7AF090728BFA0E80C5075
:1004900048BF0CC05DF804EB890028BF40F8042B6E
:1004A00008BF704748BF20F8022B11F0804F18BFDB
:1004B00000F8012B7047704770477047754600F091
:1004C0002BF8AE4605006946534620F007008546E6
:1004D00018B020B5FFF73EFFBDE820404FF0000602
:1004E0004FF000074FF000084FF0000BAC46ACE8AF
:1004F000C009ACE8C009ACE8C009ACE8C00921F00B
:1005000007018D46704710B50446AFF300802046C2
:10051000BDE81040FFF709BF0048704710000024F5
:1005200001491820ABBEFEE726000200704700001C
:1005300070B584B003284FF001018DF80A1005D87A
:100540006FF03E0101EB00108DF80B0040F2E0046B
:100550000DF10A05C2F2004483208DF80C009021B1
:10056000032320462A466426009600F049FF002017
:100570008DF80A009021012320462A46009600F0BB
:100580003FFF4FF4FA7000F0B7FC902102232046A1
:100590002A46009600F064FE9DF80A009FED091AB5
:1005A0009DF80B10020212B241EA0020002A48BF57
:1005B000002000B200EE100AB8EEC00A20EE010AD8
:1005C00004B070BDE3A54339FEE700000000000061
:1005D0007047000000000000EFF3108072B600BF0B
:1005E000FEE700000000000010B5CB0702D101209B
:1005F00010BD00BF4FF680734FEAF204C7F6FF73D9
:1006000011EA030C18BF4FF0010C032CEFD840F295
:10061000000EC7F6FF7EDFE804F01503070F00BFEA
:1006200011EA0E03E3D10DE00EF57F430B401CBF32
:10063000012010BD06E000BFBCF1000F02D0012078
:1006400010BD00BF00684161816821F018011143AD
:100650008160002010BD000010B5C8B10446407F85
:1006600020B900202077204600F036F8022060777D
:10067000207978B1D4E902122046FFF7B5FF0028AF
:100680001CBF012010BD607988B1206911E000BF56
:10069000012010BD206841F6B751C0F2C14141614F
:1006A000816821F01801816060790028EDD14FF058
:1006B000FF302168D4E905230861886820F06000D4
:1006C00010438860886820F080001843886001200B
:1006D0006077002010BD000081B044F2E041006866
:1006E000C5F6020101F5E462904201D001B0704705
:1006F000086840F400200860086800F400200090BA
:10070000009801B0704700002DE9F041044600F068
:10071000F7FC1CB3054694F83500022822D140F2BC
:100720000F462768C4F2020640F26F48B7426FF0E6
:100730000E00C4F202081DDC6F21C4F202018F42D8
:100740002ADC3F21C4F202018F4241DC1021C4F2B5
:1007500002018F4263D028215CE000BF0120BDE888
:10076000F08100BF802060650120002184F83410F2
:10077000BDE8F08147451BDC40F23F41C4F2020175
:100780008F422DDC40F21041C4F202018F4246D06C
:1007900040F228413EE000BF9F21C4F202018F4297
:1007A00028DC7021C4F202018F4238D0882131E068
:1007B00040F29F41C4F202018F4223DC40F27041BB
:1007C000C4F202018F422AD040F2884122E000BFE9
:1007D0004021C4F202018F4221D058211AE000BF0B
:1007E00040F24041C4F202018F4218D040F2584119
:1007F00010E000BFA021C4F202018F420FD0B82147
:1008000008E000BF40F2B841C4F202018F4206D0B6
:1008100040F2A041C4F202018F42394607D1394665
:10082000386820F01E0041F8140B6FF080000A6851
:10083000474500EA020008601ADC9F20C4F202006B
:10084000874233DC5720C4F2020087425ADC102072
:10085000C4F20200874200F097802820C4F2020010
:10086000874200F091804020C4F202008AE000BF7D
:1008700045F22F40C5F6020087422DDC40F2B7401A
:10088000C4F2020087424BDC40F27040C4F2020026
:10089000874279D040F28840C4F20200874273D088
:1008A00040F2A040C4F202006CE000BF40F22740DA
:1008B000C4F20200874243DCA020C4F20200874257
:1008C00062D0B820C4F2020087425DD040F21040EE
:1008D000C4F2020056E000BF45F26B40C5F60200CC
:1008E00087423FDC45F23040C5F6020087424BD0DC
:1008F00045F24440C5F60200874245D045F25840D3
:100900003EE000BF5820C4F2020087423CD0702075
:10091000C4F20200874237D08820C4F2020031E0DE
:1009200040F2B840C4F2020087422DD045F20840A0
:10093000C5F60200874227D045F21C4020E000BFE8
:1009400040F22840C4F2020087421DD040F24040ED
:10095000C4F20200874217D040F25840C4F20200AD
:1009600010E000BF45F26C40C5F6020087420BD094
:1009700045F29440C5F60200874205D045F280401A
:10098000C5F60200874204D1206E016821F480710F
:100990000160386820F00100386000BF3868C00787
:1009A00010D000F0ADFB401B0628F7D32020606577
:1009B000032084F835000120002184F83410BDE8BC
:1009C000F08100BF2068B04210DC6F21C4F2020148
:1009D00088421DDC3F21C4F20201884234DC102130
:1009E000C4F20201884255D028214FE040451BDC6B
:1009F00040F23F41C4F2020188422DDC40F2104136
:100A0000C4F20201884245D040F228413EE000BFD6
:100A10009F21C4F20201884228DC7021C4F2020145
:100A2000884237D0882131E040F29F41C4F2020170
:100A3000884223DC40F27041C4F20201884229D08E
:100A400040F2884122E000BF4021C4F20201884206
:100A500020D058211AE000BF40F24041C4F2020108
:100A6000884217D040F2584110E000BFA021C4F2E4
:100A7000020188420ED0B82108E000BF40F2B84120
:100A8000C4F20201884205D040F2A041C4F2020142
:100A900088425BD1D4E9161202F01F023F2303FA09
:100AA00002F28A6040455BDC9F21C4F20201884269
:100AB00014DC5721C4F20201884227DC1021C4F261
:100AC0000201884200F0A2802821C4F2020188427B
:100AD00000F09C804021C4F2020195E040F22741E1
:100AE000C4F2020188421FDCA021C4F20201884244
:100AF00000F08C80B821C4F20201884200F08680A8
:100B000040F21041C4F202017EE000BF5821C4F25D
:100B1000020188427AD07021C4F20201884275D065
:100B20008821C4F202016FE040F22841C4F20201C0
:100B300088426BD040F24041C4F20201884265D045
:100B400040F25841C4F202015EE000BFD4E916123F
:100B500002F01F02012303FA02F24A604045A3DDBE
:100B600045F22F41C5F60201884217DC40F2B74139
:100B7000C4F20201884227DC40F27041C4F2020153
:100B8000884243D040F28841C4F2020188423DD0FD
:100B900040F2A041C4F2020136E000BF45F26B41D1
:100BA000C5F6020188421FDC45F23041C5F602015C
:100BB00088422BD045F24441C5F60201884225D037
:100BC00045F258411EE000BF40F2B841C4F20201B4
:100BD00088421BD045F20841C5F60201884215D073
:100BE00045F21C410EE000BF45F26C41C5F6020122
:100BF00088420BD045F29441C5F60201884205D0E7
:100C000045F28041C5F6020188420BD1616EA26EA9
:100C1000E06E4A6030B1016821F480710160D4E96E
:100C20001C014160012084F835000020002184F877
:100C30003410BDE8F081000080B5D8B190F83510CF
:100C4000022919D140F20F420168C4F20202914216
:100C500016DC6F23C4F20203994227DC3F23C4F25F
:100C6000020399423EDC1023C4F2020399425FD092
:100C7000282359E0012080BD80214165012080BDED
:100C800040F26F43C4F2020399421BDC40F23F433F
:100C9000C4F2020399422DDC40F21043C4F2020375
:100CA000994245D040F228433EE000BF9F23C4F262
:100CB0000203994228DC7023C4F20203994237D020
:100CC000882331E040F29F43C4F20203994223DCBF
:100CD00040F27043C4F20203994229D040F28843A3
:100CE00022E000BF4023C4F20203994220D05823DF
:100CF0001AE000BF40F24043C4F20203994217D009
:100D000040F2584310E000BFA023C4F2020399420E
:100D10000ED0B82308E000BF40F2B843C4F202038B
:100D2000994205D040F2A043C4F20203994275D122
:100D300091424FF0040280F8352011DC6F20C4F29C
:100D40000200814222DC3F20C4F20200814239DCF1
:100D50001020C4F20200814259D0282054E000BF84
:100D600040F26F40C4F2020081421BDC40F23F407F
:100D7000C4F2020081422DDC40F21040C4F20200B5
:100D8000814244D040F228403EE000BF9F20C4F2A0
:100D90000200814228DC7020C4F20200814236D079
:100DA000882031E040F29F40C4F20200814223DCFF
:100DB00040F27040C4F20200814228D040F28840E4
:100DC00022E000BF4020C4F2020081421FD0582020
:100DD0001AE000BF40F24040C4F20200814216D047
:100DE00040F2584010E000BFA020C4F2020081424F
:100DF0000DD0B82008E000BF40F2B840C4F20200B5
:100E0000814204D040F2A040C4F20200814208684E
:100E100020F001000860002080BD00BF0A6822F0B9
:100E20000E020A6045F25742C5F6020291420A6874
:100E300022F001020A600FDC45F22F42C5F60202E1
:100E4000914219DC45F20842C5F60202914229D0CE
:100E500045F21C4222E000BF45F27F42C5F6020285
:100E6000914213DC45F25842C5F60202914219D074
:100E700045F26C4212E000BF45F23042C5F6020274
:100E800091420FD045F2444208E000BF45F294423F
:100E9000C5F60202914205D045F28042C5F6020233
:100EA00091421AD1D0E9181CD0E916E30A6822F45D
:100EB00080720A6003F01F01012202FA01F1CEF8EC
:100EC0000410816ECCF80410C16E31B10A6822F4AE
:100ED00080720A60D0E91C124A60012180F8351046
:100EE000026D002180F834100AB1904700210846B5
:100EF00080BD000000000000B0B5044600F000F91D
:100F000040F200010546C2F20041621C097818BF98
:100F10000C4400BF00F0F4F8401BA042FAD3B0BD6F
:100F20002DE9F04F82B00D68002D00F0CB8000F16C
:100F3000264242F2004302F1FF72C5F602030A267E
:100F400098424FEAB22444F2F44E08BF0926092C15
:100F500040F2040C38BF4FEAB226C5F6020EC5F6C1
:100F6000000C009600220027002609E001360D68DB
:100F700035FA06F307F1040702F1020200F0A2803D
:100F8000012303FA06F415EA0408EFD0D1F804A00F
:100F900003230AF0030B9340ABF101056FEA030949
:100FA000012D0FD88368CD6803EA090395402B43D0
:100FB0008360CAF300154368A34305FA06F423438C
:100FC000436005E0BBF1030F02D14FF0030B21E0BA
:100FD000C3688C6803EA09039440BBF1020F43EA3B
:100FE0000403C36016D16FF0030307F01C0503EA86
:100FF00056030F24034404FA05FBD3F820A00C6920
:101000002AEA0B0AAC4044EA0A041C62D1F804A0A4
:101010000AF0030B03680BFA02F403EA09031AF45B
:10102000403F43EA04030360A0D0DEF8003040F202
:10103000084A43F00203CEF80030DEF80030C5F66F
:10104000000A03F00203019326F00303019C07F05A
:101050000C040F2553F80A90A54029EA0509009DC4
:1010600005FA04F444EA090443F80A404FF0B04A90
:10107000DAF800904C6849EA0805E30258BF29EA0B
:101080000805A302CAF80050DCF8009049EA0805F8
:1010900058BF29EA0805A303CCF80050DCF880907B
:1010A00049EA080558BF29EA0805E403CCF880504E
:1010B000DCF87C3043EA080558BF23EA0805CCF881
:1010C0007C5053E702B0BDE8F08F00000000000044
:1010D000426902EA0103914341EA03418161704799
:1010E000002A08BF09048161704700000000000069
:1010F00041F20000C5F600400068000C7047000097
:1011000040F20C40C2F2004000687047000000004E
:1011100090F84120202A03D190F84020012A01D1E3
:1011200002207047242280F841200268136823F0CF
:1011300001031360136823F4805313601368194389
:101140001160116841F001011160202180F8411007
:10115000002180F8401008467047000000000000A1
:1011600090F84120202A03D190F84020012A01D193
:1011700002207047242280F841200268136823F07F
:1011800001031360136823F4706343EA01211160C3
:10119000116841F001011160202180F84110002107
:1011A00080F84010084670470268436B002B916935
:1011B000126808BF7047184710B310B5044690F87E
:1011C000410028B9002084F84000204600F010FCBF
:1011D000242084F8410094E80910E2680168012A9B
:1011E00021F00101016023F070610161816821F447
:1011F0000041816006D14CF4004181600AE000BFEB
:1012000001207047022A4CF40441816002D14FF45E
:1012100000614160416804F1100C41F0007141F43B
:1012200000414160C16821F40041C1609CE80E109A
:10123000114341EA0321C160216A41EA0C010160C6
:10124000016841F00101016000206064202184F800
:101250004110206384F8420010BD0000000000002F
:101260002DE9F04782B0044690F84100202803D1D0
:1012700094F84000012803D1022002B0BDE8F087B5
:101280001F4615468846012084F84000FFF738FFC6
:10129000216806468A69120425D4222084F8410078
:1012A000102084F8420000206064656240F2000A69
:1012B0006785C0F2FF1A6063608DB0F5807F49F6E4
:1012C0000000CFF6004021D3434651F8042F6FF3BE
:1012D0009F2302EA00070AF51055FF2222E000BF13
:1012E00088690004D9D5FFF70BFF801B21681A28F5
:1012F000F6D388690004F3D5606C40F02000606488
:10130000202084F84100012071E000BF628D434637
:101310006FF39F230AF59235D7B243EA074751F896
:10132000043F03403B430A9F2B430B602285618DA2
:10133000002945D06FF39F284FF0FF0900F5806525
:1013400011E000BF618D20682185C9B250F8042FDB
:101350002A4042EA01414FF0007241EA080111437C
:101360000160608D60B320463946324603F0E8F8EC
:1013700060BB2068616A406A0870218D606A013034
:101380006062481E2085618D01396185618D00296B
:10139000E7D00004E5D18021002220463B4600969C
:1013A00003F056F890B9608DB0F5807FCAD32068FD
:1013B000A4F82890524650F8041F2940CDE700BFFA
:1013C00020463946324603F023F918B1012002B015
:1013D000BDE8F087206820214EF60003C161CFF6FA
:1013E000006342681A404260002084F841100021E6
:1013F00084F8421084F8401002B0BDE8F087000085
:101400002DE9F04782B0044690F84100202803D12E
:1014100094F84000012803D1022002B0BDE8F08713
:101420001F4615468846012084F84000FFF768FEF5
:10143000216806468A69120425D4212084F84100D7
:10144000102084F8420000206064656240F2000AC7
:101450006785C0F2FF1A6063608DB0F5807F49F642
:101460000000CFF6004021D3434651F8042F6FF31C
:101470009F2302EA00070AF50055FF2222E000BF81
:1014800088690004D9D5FFF73BFE801B21681A2824
:10149000F6D388690004F3D5606C40F020006064E6
:1014A000202084F8410001206FE000BF628D434698
:1014B0006FF39F230AF59035D7B243EA074751F8F7
:1014C000043F03403B430A9F2B430B602285618D01
:1014D000002943D06FF39F284FF0FF0900F5806586
:1014E00011E000BF618D20682185C9B250F8042F3A
:1014F0002A4042EA01414FF0007241EA08011143DB
:101500000160608D50B320463946324603F0C0F882
:1015100050BB606A216810F8012B8A626062608D9E
:1015200001386085208D01382085618D0029E8D043
:101530000004E6D18021002220463B46009602F0BE
:1015400087FF88B9608DB0F5807FCBD32068A4F881
:101550002890524650F8041F2940CEE720463946CD
:10156000324603F055F818B1012002B0BDE8F0870B
:10157000206820214EF60003C161CFF60063426867
:101580001A404260002084F84110002184F8421083
:1015900084F8401002B0BDE8F087000000000000B1
:1015A0002DE9F04F81B0044690F8410020280DD17C
:1015B000DDF82880B8F1000F0CD0DDF82CA0BAF1CE
:1015C000000F07D094F8400001280BD1022001B091
:1015D000BDE8F08F4FF400706064012001B0BDE8F9
:1015E000F08F00BF1D4617468946012084F8400051
:1015F000FFF786FD216806468A69120447D4222037
:1016000084F84100402084F84200E8B24FF0000B1B
:101610006FF39F29C4F844B0C4F8248049EA00401D
:10162000A4F82AA049F6000AC4F834B0CFF6004A5C
:101630004A68DDF8308002EA0A021044324600F5BA
:10164000005048602046414603F022F8A8B9012D19
:10165000206808D0390A816220464146324603F0AC
:1016600017F850B92068F9B2816240210022204663
:101670004346009602F0ECFE10B384F840B001201F
:1016800001B0BDE8F08F00BF88690004B7D5FFF74F
:1016900037FD801B21681A28F6D388690004F3D52A
:1016A000606C40F020006064202084F8410000203D
:1016B00084F8420084F84000012001B0BDE8F08FBA
:1016C000608D40F2000BC0F2FF1BB0F5807F09D3A4
:1016D00020680BF5105350F8041F01EA0A02FF219D
:1016E0000BE000BF618D2068CAB250F8043F03EAE6
:1016F0000A0343EA02420BF592331A43FF270AF525
:10170000806542EA09020260218510E0618D20684F
:101710002185C9B250F8042F2A4042EA01414FF016
:101720000072114341EA09010160608D80B3042118
:10173000002220464346009602F08AFE00287FF4ED
:101740004CAF2068616A406A0870218D606A013080
:101750006062481E2085618D01396185618D002997
:10176000E3D00004E1D180210022204643460096C8
:1017700002F06EFE00287FF430AF608DB0F5807F00
:10178000C4D3206827855A4650F8041F2940C8E76B
:1017900020464146324602F03BFF00287FF41DAF51
:1017A000206820214EF60003C161CFF60063426835
:1017B0001A40426084F84110002084F8420084F806
:1017C000400001B0BDE8F08F2DE9F04F81B0044634
:1017D00090F8410020280DD1DDF82880B8F1000FE5
:1017E0000CD0DDF82CA0BAF1000F07D094F840001F
:1017F00001280BD1022001B0BDE8F08F4FF400703A
:101800006064012001B0BDE8F08F00BF1D4617469F
:101810008946012084F84000FFF772FC21680646E3
:101820008A69120449D4212084F84100402084F8B8
:101830004200E8B24FF0000B6FF39F29C4F844B0A8
:10184000C4F8248049EA0040A4F82AA049F6004AD6
:10185000CFF6004AC4F834B04A68AAF580631A404B
:10186000DDF830801044324640F0807040F4005083
:1018700048602046414602F00BFFA8B9012D2068C0
:1018800008D0390A816220464146324602F000FF04
:1018900050B92068F9B28162802100222046434677
:1018A000009602F0D5FD08B384F840B0012001B0E5
:1018B000BDE8F08F88690004B5D5FFF721FC801BD7
:1018C00021681A28F6D388690004F3D5606C40F0CB
:1018D00020006064202084F84100002084F8420049
:1018E00084F84000012001B0BDE8F08F608D002534
:1018F000C0F2FF15B0F5807F08D320682B4650F862
:10190000041F01EA0A02FF210BE000BF618D20687D
:10191000CAB250F8043F03EA0A0343EA02424FF016
:1019200000731A43FF2742EA09020260218511E091
:10193000618D20682185C9B250F8042F02EA0A029D
:1019400042EA01414FF00072114341EA090101608E
:10195000608D78B320464146324602F099FE002859
:101960007FF44FAF606A216810F8012B8A626062D1
:10197000608D01386085208D01382085618D0029BA
:10198000E6D00004E4D180210022204643460096A0
:1019900002F05EFD00287FF434AF608DB0F5807FEB
:1019A000C6D3206827852A4650F8041F01EA0A0199
:1019B000CAE700BF20464146324602F029FE002811
:1019C0007FF41FAF206820214EF60003C161CFF6DF
:1019D000006342681A40426084F84110002084F895
:1019E000420084F8400001B0BDE8F08F0000000024
:1019F000B0B5B8B002A9044601F10800B821FEF75D
:101A000033FD45F600012068C4F20001884201D090
:101A100038B0B0BD0820029002A80024039400F062
:101A2000BFFA08B1FEF7D8FD44F2E04533A9C5F688
:101A30000205286840F002002860286800F00200D3
:101A4000339033984FF4406033901220CDE9340442
:101A50000420379040F200403694C5F60200FFF7AC
:101A60005FFAA868002140F48000A860A8680022FE
:101A700000F4800001900198212000F0E5F8212079
:101A800000F0CEF838B0B0BD40F2000040F20C419A
:101A9000C2F20040C2F2004100780A6810440860B7
:101AA000704700000000000080B5032000F0FCF843
:101AB00001F0D2F944F2184146F21603C5F60201CC
:101AC000C0F600030A68096801F00F01C2F303229F
:101AD000595C9A5C01F01F0102F01F02D04040F2F5
:101AE0000C02C2F2004220FA01F1116040F208013A
:101AF000C2F2004108600F2000F00AF800281CBF65
:101B0000012080BD00F07CF8002080BD00000000B6
:101B100070B540F20006C2F200463178E1B10446E9
:101B200040F20800C2F200404FF47A72B2FBF1F1C9
:101B30000068B0FBF1F001F00BFE0F2C4FF0010537
:101B400008D838B94FF0FF3000222146002500F0B8
:101B50007BF87460284670BD012070BD0000000055
:101B6000B0B502784EF69C5CCEF2000C43784CF88F
:101B7000043CFAB14368CCF80030037BC17A90F89A
:101B80000AE0457B447A42EA0372837B42EA0161C0
:101B9000C27B41EACE41007A41EA854141EA4341B4
:101BA00041EA024141EA042141EA4000CCF8040044
:101BB000B0BD00BF0020CCF80000CCF80400B0BDE0
:101BC0004EF62450CEF20000BFF35F8F016821F47F
:101BD00080310160002101677047000000000000B3
:101BE0004EF6245140F00100CEF20001086708686B
:101BF00040F480300860BFF34F8FBFF36F8F7047A2
:101C000081B044F2F440C5F60200016841F00201DF
:101C10000160006800F002000090009801B0704779
:101C2000002848BF704781B200F01F000122490917
:101C300002FA00F04EF20012CEF2000242F8210049
:101C4000704700000000000070B54EF60C5C4FF0CD
:101C5000FF36CEF2000C00F1604505F56445DCF876
:101C60000030C3F3022E8EF00703042B28BF042399
:101C7000BEF1030406FA03F321EA030100F00F03A7
:101C800038BF0024043B0028634406FA04F048BF30
:101C900003F10C05A14022EA00000843000128706E
:101CA00070BD0000000000004EF60C514FF6FF031F
:101CB000CEF200010A681A4060F30A2242F0806006
:101CC00040F0FD7008607047B0B544F60C05C5F6ED
:101CD000020529684907296806D401F00701081A96
:101CE00018BF0120B0BD00BF21F0070108432860E4
:101CF000FFF706FA044600BF55F8080C800407D425
:101D0000FFF7FEF9001BB0F57A7FF5D90120B0BDD1
:101D10000020B0BD0000000080B501F015F844F2CD
:101D2000204146F21602C5F60201C0F6000209681B
:101D3000C1F30211515C01F01F01C84080BD0000D9
:101D400080B544F2384EC5F6020E5EF8103C5EF8DF
:101D5000101C5EF80C2CC1F3053CDEF80410BCF13D
:101D6000000F15D0C908D20601EAE2716FF35F31A6
:101D700000EE101A03F003010229B8EE400A0DD05C
:101D800081B95EF8381C890610D49FED361A1BE025
:101D900000218160C0E9001180BD00BF9FED301AB5
:101DA00012E000BF9FED2D1A0EE000BF5EF8381C58
:101DB00049F20002C0F2D032C1F3C10122FA01F1AE
:101DC00001EE101AB8EE411ADEF800109FED263A27
:101DD0006FF35F2102EE101ADEF80010C1F3462106
:101DE000B8EE422A00EE032A00EE10CAB7EE003A1F
:101DF000B8EE400A81EE000A32EE031A02EE101A23
:101E0000B8EE422A20EE010A32EE031A80EE011AE1
:101E1000BCEEC11A80ED001ADEF80010C1F30641D5
:101E200001EE101AB8EE411A31EE031A80EE011AD3
:101E3000BCEEC11A80ED011ADEF80010C1F3066194
:101E400001EE101AB8EE411A31EE031A80EE010AC3
:101E5000BCEEC00A10EE101A816080BD0024744AE6
:101E600020BCBE4B0024744C000000390000000070
:101E700080B544F2404EC5F6020E5EF8183C5EF89E
:101E8000181C5EF8142CC1F3055CDEF80410BCF1DC
:101E9000000F15D0C908D20501EAE2716FF35F3176
:101EA00000EE101A03F003010229B8EE400A0DD02B
:101EB00081B95EF8401C890610D49FED361A1BE0EC
:101EC00000218160C0E9001180BD00BF9FED301A84
:101ED00012E000BF9FED2D1A0EE000BF5EF8401C1F
:101EE00049F20002C0F2D032C1F3C10122FA01F17D
:101EF00001EE101AB8EE411ADEF800109FED263AF6
:101F00006FF35F2102EE101ADEF80010C1F34621D4
:101F1000B8EE422A00EE032A00EE10CAB7EE003AED
:101F2000B8EE400A81EE000A32EE031A02EE101AF1
:101F3000B8EE422A20EE010A32EE031A80EE011AB0
:101F4000BCEEC11A80ED001ADEF80010C1F30641A4
:101F500001EE101AB8EE411A31EE031A80EE011AA2
:101F6000BCEEC11A80ED011ADEF80010C1F3066163
:101F700001EE101AB8EE411A31EE031A80EE010A92
:101F8000BCEEC00A10EE101A816080BD0024744AB5
:101F900020BCBE4B0024744C00000039000000003F
:101FA0002DE9F0470446C07844F22C480007C5F6F6
:101FB000020833D5A06E4FEA305103290CD8DFE870
:101FC00001F003111D2600BFD8F8001041F40031C4
:101FD000C8F800101BE000BF01266078C0070BD0D6
:101FE00020E000BF04F10800022102F029FE0646AD
:101FF00060B16078C00715D1354646E004F128008D
:10200000022102F0B1FE06460028F2D1A06ED8F8F7
:10201000241021F440110843C8F8240000266078F9
:10202000C007E9D0A06D04280ED83546DFE800F0DF
:102030000412181E1E0000BFD8F80000354640F4F8
:102040000030C8F8000011E0012501276078800702
:102050001FD452E004F10800002102F0F1FD04E079
:1020600004F12800002102F07FFE05462F461DB135
:10207000607880070DD440E0D8F82400A16D20F0EE
:10208000070000250843C8F8240037466078800719
:1020900033D5E06D4FEAB01004280DD8DFE800F02A
:1020A0000412181E1E0000BFD8F8000040F40030D3
:1020B000C8F8000012E000BF012501266078400743
:1020C0001FD455E004F10800002102F0B9FD04E03E
:1020D00004F12800002102F047FE05462E461DB1FE
:1020E000607840070DD443E0D8F82400E16D20F477
:1020F000E07000250843C8F824003E466078400799
:1021000036D5D4F8A8004FEA705004280CD8DFE880
:1021100000F00313191F1F00D8F8000040F400302E
:10212000C8F8000014E000BF01254FF001096078F5
:10213000000721D456E000BF04F10800002102F09E
:102140007FFD04E004F12800002102F00DFE0546A9
:10215000A9461DB1607800070ED443E0D8F82C00E2
:10216000D4F8A81020F4600000250843C8F82C001B
:10217000B1466078000735D5D4F8AC004FEA30603E
:1021800004280DD8DFE800F00412181E1E0000BF5E
:10219000D8F8000040F40030C8F8000012E000BF9A
:1021A00001250127E078800720D44EE004F10800E3
:1021B000002102F045FD04E004F12800002102F0B6
:1021C000D3FD05462F461DB1E07880070ED43CE0D4
:1021D000D8F82C00D4F8AC1020F0E06000250843BB
:1021E000C8F82C004F46E07880072ED5E06C4FEA07
:1021F000301003280ED8DFE800F00903130900BFF0
:10220000D8F8000040F40030C8F800002E467DB930
:1022100012E000BF012501266078C00619D44CE009
:1022200004F10800022102F00BFD05462E461DB107
:102230006078C0060DD440E0D8F82000E16C20F0B2
:10224000300000250843C8F820003E466078C006EC
:1022500033D5206E4FEA303004280DD8DFE800F087
:102260000412181E1E0000BFD8F8000040F4003011
:10227000C8F8000012E000BF012501276078800641
:102280001FD44EE004F10800002102F0D9FC04E064
:1022900004F12800002102F067FD05462F461DB11C
:1022A000607880060DD43CE0D8F82400216E20F43C
:1022B000E04000250843C8F82400374660788006CF
:1022C0002FD5606E4FEA3040052809D8DFE800F0CE
:1022D000040E1404040400BF2E46ADB918E000BF7C
:1022E00001250126607840061FD44FE004F1080064
:1022F000012102F0A5FC04E004F12800012102F014
:1023000033FD05462E461DB1607840060DD43DE0F4
:10231000D8F82400616E20F4E02000250843C8F8B6
:1023200024003E466078400630D5D4F8B0004FEA2D
:102330003070052808D8DFE800F0030D130303030D
:102340002F46ADB918E000BF0125012760780006CF
:1023500020D442E004F10800012102F071FC04E005
:1023600004F12800012102F0FFFC05462F461DB1B3
:10237000607800060ED430E0D8F82C00D4F8B01005
:1023800020F0E04000250843C8F82C00374660786C
:10239000000622D5206F58B1B0F1005F0CD0B0F12B
:1023A000805F2FD1D8F8000040F40030C8F800005A
:1023B0002E469DB908E000BF04F10800012102F09B
:1023C0003FFC05462E464DB9D8F82400216F20F079
:1023D000405000250843C8F824003E46E078C00776
:1023E00033D0A06C032813D8DFE800F008021A08E5
:1023F000D8F8000040F40030C8F80000A946BDB984
:102400001AE000BF01250126E078C007E9D11CE0F1
:1024100001254FF00109A07840061AD51CE000BF45
:1024200004F10800022102F00BFC0546A9461DB18B
:10243000A07840060DD50FE0D8F82000A16C20F060
:10244000030000250843C8F82000B146A0784006E4
:1024500002D44F4618E000BFD8F8D40340F480708F
:10246000C8F8D403FEF74CFE064600BFD8F8D403E4
:10247000C00507D4FEF744FE801B6428F6D9032567
:10248000032701E02F468DB12078C00761D0E06FAF
:102490004FEAF00005283BD8DFE800F0044046048E
:1024A000040400BF002D2E4646D149E0D8F8441060
:1024B000D4F8B400414011F4407F11D0D8F8441052
:1024C000D8F8442042F48032C8F84420D8F8442098
:1024D00021F4407122F48032C8F84420C8F8441036
:1024E000B0F5807F40F0DE82FEF70AFE064641F23C
:1024F000883A0325032700BFD8F84400800700F17D
:10250000CF82FEF7FDFD801B5045F5D9BCE700BF2B
:1025100001260125207880071FD44CE004F1080033
:10252000012102F08DFB04E004F12800012102F0FA
:102530001BFC05462E461DB1207880070DD43AE0DD
:10254000D8F82800E16F20F0380000250843C8F8CB
:1025500028003E46207880072DD5A06F052809D891
:10256000DFE800F0040E1404040400BF2F46ADB9E8
:1025700018E000BF01270125207840071FD44DE057
:1025800004F10800012102F05BFB04E004F12800E3
:10259000012102F0E9FB05462F461DB120784007D6
:1025A0000DD43BE0D8F82800A16F20F007000025EB
:1025B0000843C8F828003746207840072ED5D4F8BD
:1025C0009400052808D8DFE800F0030D1303030387
:1025D0002E46ADB918E000BF0126012520788006FF
:1025E00020D451E004F10800012102F029FB04E0AD
:1025F00004F12800012102F0B7FB05462E461DB16B
:10260000207880060ED43FE0D8F82C00D4F894103F
:1026100020F0070000250843C8F82C003E4620782B
:10262000800631D5D4F890004FEA3070052809D8DB
:10263000DFE800F0040E1404040400BF2F46ADB917
:1026400018E000BF012701252078400620D451E082
:1026500004F10800002102F0F3FA04E004F128007C
:10266000022102F081FB05462F461DB1207840066D
:102670000ED43FE0D8F82800D4F8901020F0E040C5
:1026800000250843C8F8280037462078400631D591
:10269000D4F89C004FEAB020052809D8DFE800F004
:1026A000040E1404040400BF2E46ADB918E000BFA8
:1026B000012601252078000620D454E004F108000A
:1026C000002102F0BDFA04E004F12800022102F02A
:1026D0004BFB05462E461DB1207800060ED442E085
:1026E000D8F82C00D4F89C1020F4E05000250843C2
:1026F000C8F82C003E462078000634D5D4F8A00057
:102700004FEA703005280FD8DFE800F004141A04EF
:10271000040400BF2F46E5B12068010727D4C10695
:102720003ED4000355D475E0012701252068010738
:10273000F5D51CE004F10800002102F081FA04E064
:1027400004F12800022102F00FFB0546002D2F4660
:10275000E2D1D8F82C00D4F8A01020F46040002575
:102760000843C8F82C00374620680107D7D5D4F8AD
:102770008400B0F5805F09D104F12800022102F045
:10278000F3FA002818BF0127D4F88400D8F82810DD
:1027900021F440510843C8F828002068C106C0D57C
:1027A000D4F89800B0F5807F09D104F12800022107
:1027B00002F0DAFA002818BF0127D4F89800D8F8F8
:1027C0002C1021F440710843C8F82C002068000345
:1027D00020D5D4F8A400B0F5003F0FD0B0F5803F6D
:1027E00006D078BB04F10800002102F029FA04E0C9
:1027F00004F12800022102F0B7FA05462E4655B929
:10280000D8F82C00D4F8A41020F440300025084358
:10281000C8F82C003E46A07840072BD5D4F8880095
:10282000B0F5401F0BD0B0F5001F11D0B0F5801FE0
:102830002AD1D8F8000040F40030C8F800002F4634
:10284000CDB90DE001260125A0784007E6D411E0BE
:1028500004F12800012102F087FA05462F4655B9F8
:10286000D8F82800D4F8881020F440100025084338
:10287000C8F828003746A078C0070AD13E4621682C
:10288000880016D533E000BF01270125A078C007D6
:10289000F4D0206DB0F5803F10D018BBD8F8000000
:1028A00040F40030C8F800002E4685B12168880049
:1028B0001DD460688A0326D469E000BF04F10800D3
:1028C000022102F0BDF90546002D2E46EED1D8F8C2
:1028D0002000216D20F4803000250843C8F8200036
:1028E000CCE700BF0126012521688800E1D504F16D
:1028F0002800022102F038FA002818BF0126D4E986
:1029000000108A0343D5D4F880206FF0010303EB55
:102910003223022B0BD34FEA322343B1012B40F079
:10292000B980D8F8003043F40033C8F800303DB324
:10293000CA022FD4CA0037D48A0240D44A0048D4ED
:10294000CA0F55D109025DD4C10766D181076FD482
:10295000410779D4010700F18380C10600F18C8022
:10296000800607D504F12800022102F0FDF90028B5
:1029700018BF0125002D18BF01252846BDE8F087A6
:10298000D8F8283023F440731A43C8F82820354675
:10299000CA02CFD5D8F82420636F22F000421A4330
:1029A000C8F82420CA00C7D558F81C2CD4F8B83071
:1029B00022F480421A4348F81C2C8A02BED5D8F86B
:1029C0002420E36E22F080721A43C8F824204A00C3
:1029D000B6D558F81C2C22F4004248F81C2CD4F828
:1029E000BC2058F81C3C1A4348F81C2CCA0FA9D02C
:1029F000D8F82020636D22F040521A43C8F82020F6
:102A00000902A1D5D8F82810D4F88C2021F440016F
:102A10001143C8F82810C10798D004F1080000211C
:102A200002F00EF9002818BF0546606881078FD5AF
:102A300004F10800012102F003F9002818BF05463F
:102A4000606841077FF586AF04F10800022102F0BB
:102A5000F7F8002818BF0546606801077FF57DAFCD
:102A600004F12800002102F07FF9002818BF054674
:102A70006068C1067FF574AF04F12800012102F0FF
:102A800073F9002818BF0546606880067FF572AFAD
:102A900068E700BF0125CA027FF54CAF7AE700BFA7
:102AA000D4F8B4004FF6CF7358F81C2CC0F2FF03D3
:102AB00000F4407122F47C5203EA10136FF31F30CC
:102AC000B1F5407F08BF1A43002548F81C2CD8F800
:102AD00044100843C8F84400FFF7BBBC00000000E6
:102AE0002DE9F04381B0002800F02A8142F200086D
:102AF0000446C5F200288946D8F8000000F00F000F
:102B000088420ED2D8F8000020F00F0040EA0900F9
:102B1000C8F80000D8F8000000F00F00484540F069
:102B20000F81206844F218474107C5F602070AD50D
:102B300021693A6802F07002914204D93A6822F0A1
:102B400070021143396001070AD561697A6802F0A1
:102B50007002914204D97A6822F0700211437960C0
:102B6000C1060AD5A1697A6802F4E062914204D9EB
:102B70007A6822F4E0621143796081060AD5E1693E
:102B8000BA6802F07002914204D9BA6822F0700269
:102B90001143B96010F002010AD0E2683B6803F00B
:102BA0000F039A4204D93B6823F00F031A433A609B
:102BB000C20746D0386820F47061D4E901020128C8
:102BC00041EA0201396009D003280DD0022811D151
:102BD00057F8181C890340F1B38010E057F8181C0F
:102BE000C90540F1AD800AE057F8181C890140F191
:102BF000A78004E057F8181C490740F1A18057F856
:102C0000081C21F00701084347F8080CFEF778FA82
:102C1000064641F2883500BF57F8080C616800F09D
:102C20003800B0EBC10F09D0FEF76AFA801BA8424A
:102C3000F2D9032001B0BDE8F08300BF206800F0A6
:102C4000020151B1E1683A6802F00F02914204D2E8
:102C50003A6822F00F0211433960D8F8001001F0F1
:102C60000F0149450DD9D8F8001021F00F0141EAB4
:102C70000901C8F80010D8F8001001F00F0149450B
:102C80005ED141070AD521693A6802F0700291428B
:102C900004D23A6822F070021143396001070AD564
:102CA00061697A6802F07002914204D27A6822F077
:102CB000700211437960C1060AD5A1697A6802F4ED
:102CC000E062914204D27A6822F4E06211437960B2
:102CD00080060AD5E069B96801F07001884204D223
:102CE000B96821F070010843B86000F0B5F83968A0
:102CF00046F216033A68C0F60003C1F3032102F05E
:102D00000F02595C9A5C01F01F0120FA01F102F0F8
:102D10001F0040F20C0221FA00F0C2F200421060E3
:102D200040F2040040F20802C2F20040C2F2004247
:102D30000068116001B0BDE8F043FEF7E9BE00BFD6
:102D4000012001B0BDE8F08380B500F085F844F2C1
:102D5000184146F21603C5F60201C0F600030A68E0
:102D6000096801F00F01C2F30322595C9A5C02F07A
:102D70001F0220FA02F201F01F0040F20C0122FAB9
:102D800000F0C2F20041086040F20801C2F20041C6
:102D90000A6080BD0000000080B500F05DF844F2DC
:102DA000184C46F21601C5F6020CC0F60001DCF81C
:102DB0000020DCF8003003F00F03C2F30322CB5CE9
:102DC0008A5C02F01F02D04003F01F0240F20C03A5
:102DD00020FA02F2C2F200431A6040F20803C2F283
:102DE00000431860DCF80400C0F30210085C00F037
:102DF0001F0022FA00F080BD80B500F02DF844F2EB
:102E0000184C46F21601C5F6020CC0F60001DCF8BB
:102E10000020DCF8003003F00F03C2F30322CB5C88
:102E20008A5C02F01F02D04003F01F0240F20C0344
:102E300020FA02F2C2F200431A6040F20803C2F222
:102E400000431860DCF80400C0F30220085C00F0C6
:102E50001F0022FA00F080BD44F20041C5F60201D5
:102E60000869C0F3C200032810D002282ED098BBF6
:102E70000868800649F20000C0F2D03058BF7047A1
:102E80000968C1F3C101C840704700BF8A6A886AF7
:102E9000C0F3051CC86ABCF1000F4B6B22D000F0D8
:102EA000010002F003024042022A00EAD3006FF35D
:102EB0005F3000EE100AB8EE400A15D0C2B90868BB
:102EC000800619D49FED281A23E000BF47F6400082
:102ED000C0F27D10704700BF40F60010C0F23D0008
:102EE000704700BF002070479FED1E1A11E000BF21
:102EF0009FED1B1A0DE000BF086849F20002C0F206
:102F0000D032C0F3C10022FA00F001EE100AB8EE90
:102F1000411A086B9FED153A6FF35F2002EE100A1D
:102F2000086BC0F34620B8EE422A013000EE032AB7
:102F300000EE10CAB7EE003AB8EE400A81EE000A81
:102F400032EE031A20EE010A01EE100AB8EE411A21
:102F500080EE010ABCEEC00A10EE100A704700BFF6
:102F60000024744A20BCBE4B0024744C000000397D
:102F7000F0B581B0002800F063810446007844F287
:102F80000046C007C5F6020622D12078800740F12E
:102F9000BC80306910F03801B06A3FD0182908BFF2
:102FA0005FEA80703AD0E0683168002862D021F092
:102FB000190108433060FEF7A3F805463068400762
:102FC00048D4FEF79DF8401B0228F7D977E100BFEF
:102FD000306900F03801B06A102905D018290BD1EA
:102FE00000F00300022807D130688003CDD5606867
:102FF0000028CAD124E100BF606800284CD0B0F599
:10300000A02F61D0B0F5803F62D0306820F48030CE
:103010003060306820F480205DE000BF30684007F9
:10302000E06802D5002800F00B81316821F0190119
:1030300008433060FEF764F8054600BF306840077B
:1030400008D4FEF75DF8401B02284FF00300F5D9C5
:1030500021E200BFFEF74CF841F20301884249D853
:1030600020697168402821F47C314BD141F4003053
:103070004AE000BF21F001003060FEF741F805464C
:103080003068400741D5FEF73BF8401B02284FF05F
:103090000300F5D9FFE100BF306820F480303060D4
:1030A000306820F480203060FEF72AF8054600BF23
:1030B000306880037FF569AFFEF722F8401B642873
:1030C0004FF00300F4D9E6E1306840F4802030602E
:1030D000306840F480303060FEF712F8054600BFDB
:1030E000306880033FF551AFFEF70AF8401B6428B3
:1030F000F6D9E4E07068216920F0FE4040EA016002
:1031000002E000BF41EA003070602078C00654D56C
:10311000306900F03801B06A082905D0182919D1A2
:1031200000F00300012815D13068C00503D5E0691F
:10313000802840F08580FDF7DBFF41F203018842E3
:103140001ED8206A7168202821F0F84132D141F060
:10315000804031E0E0690028306819D040F08000FC
:103160003060FDF7CDFF05463068C005E3D4FDF7BC
:10317000C7FF401B02284FF00300F5D98BE100BFC9
:10318000F068216A20F07C5040EA0160F06014E0B1
:1031900020F080003060FDF7B3FF05463068C005C1
:1031A0000BD5FDF7ADFF401B02284FF00300F5D90A
:1031B00071E100BF41EA806070602078000743D46D
:1031C0002078800654D42078400765D4656A9DB382
:1031D000306900F03800182840F0A880012DB16A4D
:1031E000306B2DD001F00302A36A9A4228D1C1F3BB
:1031F0000511E26A914223D10146226B6FF35F21F0
:10320000013A91421CD1C0F34622616B01398A42D6
:1032100016D1C0F30642A16B01398A4210D1C0F326
:103220000660E16B013988420AD1706BA16CC0F372
:10323000CC00814240F03281002001B0F0BD00BFDF
:10324000012001B0F0BD00BF60690028706F39D067
:1032500040F001007067FDF753FF0546706F80076F
:10326000AED4FDF74DFF401B0228F7D927E000BF81
:10327000A0690028306847D040F480503060FDF7E6
:103280003FFF0546306880049DD4FDF739FF401BA1
:103290000228F7D913E000BFD6F8000440F480708C
:1032A000C6F80004FDF72CFF054600BFD6F8000461
:1032B000C00519D4FDF724FF401B6428F6D903206C
:1032C00001B0F0BD20F001007067FDF719FF054661
:1032D000706F80077FF574AFFDF712FF401B022867
:1032E0004FF00300F4D9D6E0A068002840D00528AC
:1032F00058D001285AD0306F20F001003067306F6D
:1033000020F0040055E000BF20F480503060FDF74D
:10331000F7FE0546306880047FF555AFFDF7F0FEF7
:10332000401B02284FF00300F4D9B4E0306820F0CD
:1033300080703060FDF7E4FE022D05460CD100BF21
:103340003068800148D5FDF7DBFE401B02284FF0B6
:103350000300F5D99FE000BF306880017FF56CAFB6
:10336000FDF7CEFE401B02284FF00300F4D992E097
:10337000306F20F001003067306F20F004003067BC
:10338000FDF7BEFE054641F28837306F80077FF5B6
:103390001DAFFDF7B5FE401BB8424FF00300F4D956
:1033A00079E000BF306F40F004003067306F40F0CC
:1033B00001003067FDF7A4FE054641F2883700BFE3
:1033C000306F80073FF502AFFDF79AFE401BB84211
:1033D0004FF00300F4D95EE004F12807B06A40F230
:1033E000F33188438ECF0843591E40EA02104FF450
:1033F0007E426FF35F21B06202EB47204FF4FE0282
:1034000080B2E36B0844A16B02EB01414FF0FE4236
:1034100001F4FE0102EB0362084402F0FE4108449D
:103420003063F06A4FF6F87120F00100F062706BC3
:10343000A26C884340EAC2007063F06A216C20F0FD
:103440000C000843F062F06A616C20F0020008434F
:10345000F062F06A40F48030F062F06A40F40030CC
:10346000F062F06A40F48020F062F06A40F00100FF
:10347000F062306840F080703060FDF741FE044635
:10348000306880013FF5D8AEFDF73AFE001B0228F8
:103490004FF00300F4D901B0F0BD00BFF06A20F096
:1034A0000100F062FDF72CFE0546FDF729FEA8425B
:1034B000FBD0706B4FF6F871A26C884340EAC200F3
:1034C0007063F06A40F00100F062002001B0F0BDCE
:1034D0002DE9F04381B000285BD043F6000104469B
:1034E0000068C4F2000143F2000E43F6004C88422B
:1034F000C4F2010EC4F2000C4FF00002A26203D02D
:10350000604518BF704541D1E36B0125E2688842F0
:1035100002F1080205EB53134FEAD20202FB03F358
:1035200018BF704526D1102B33D894F8810028B9E4
:10353000002084F88000204600F0AAF8022084F8D9
:103540008100D4E90009D4F818800368B8F1806FCD
:1035500023F001030360836803F4F81E26D1B9F158
:10356000000F1BD0B9F5800F20D1A36BD3B14FF45E
:10357000800921E0604518BF082B0AD80CF574417A
:10358000884218BF6045CED0CFE700BFE3680F2B5D
:10359000BAD9012001B0BDE8F08300BFA36BB3F13D
:1035A000805F71D1036843F4805303605FEA49236D
:1035B00002D44FF0010C0FE0E368072B0AD3056833
:1035C00025F4807C256D45EA0C0505604FF0000C64
:1035D00007E000BF4FF0000C036823F48073036022
:1035E000E368E769A26A47EA0E07E16B3A43A56818
:1035F00011432669676919438160B9F1000F626A56
:10360000D4E90D1341EA0201226A41EA0301E36CA5
:1036100041EA060141EA070141EA0201A26C41EADE
:103620000301A36D41EA050141EA020141EA0301F8
:1036300041EA080141EA0901C1600DD0016DBCF108
:10364000000F21F00101016514D1C168626D21F004
:1036500000411143C1600DE08168012262F3CC2179
:1036600081608168022262F34A218160016D21F04C
:10367000010101650020C4F88400012184F8811053
:1036800001B0BDE8F08300BF4FF0000991E70000F2
:103690002DE9F041B6B06946044601F10800B821B1
:1036A000FCF7E2FE43F600012068C4F20001884204
:1036B00002D036B0BDE8F0814FF4805000906846EB
:1036C0004FF00008CDF80480FEF76AFC08B1FCF763
:1036D00083FF44F2E0400024C5F60200C5F6020470
:1036E00031AD02278168052641F4804181608168FF
:1036F00001F4804131913199016841F00401016088
:10370000016801F0040131913199016841F0010132
:1037100001600068294600F00100319031980620D0
:10372000319004F50060CDE93278CDF8D08035963F
:10373000FDF7F6FB31A94FF40070CDE9348681E83E
:10374000810120462946FDF7EBFB36B0BDE8F0814C
:10375000411E0020B0EB116F02D00120704700BF66
:103760004EF21002F023CEF2000251604EF62351C9
:10377000CEF200010B7007219060116070470000CD
:1037800090F88410012901D1022070472421C0F84B
:10379000881002681368116823F0005321F00101BA
:1037A00011600021416613602022C0F8882080F853
:1037B00084100846704700007047000000000000B9
:1037C000704700000000000070B590F88420012AC6
:1037D00002D1022070BD00BF2422C0F888200268F8
:1037E000D0F864E0BEF1000FD2F800C0136823F0F7
:1037F00001031360936823F0606341EA0301916061
:103800001AD0916846F23E0E9368C0F6000E5B0F28
:1038100046F24605C1F34266C0F600051EF80340B5
:10382000E95C2301B3FBF1F11EF80630AE5D1B012C
:10383000B3FBF6F302E000BF01210123A0F86A10F8
:103840002021A0F86830C2F800C0C0F8881000211C
:1038500080F88410084670BD70B590F88420012A65
:1038600002D1022070BD00BF2422C0F88820026867
:10387000D0F864E0BEF1000FD2F800C0136823F066
:1038800001031360936823F0604341EA03019160F0
:103890001AD0916846F23E0E9368C0F6000E5B0F98
:1038A00046F24605C1F34266C0F600051EF8034025
:1038B000E95C2301B3FBF1F11EF80630AE5D1B019C
:1038C000B3FBF6F302E000BF01210123A0F86A1068
:1038D0002021A0F86830C2F800C0C0F8881000218C
:1038E00080F88410084670BD70470000000000009A
:1038F000704700000000000070470000000000005A
:1039000070B50446006840F62F01C26911402029B5
:10391000016886680ED101F0200306F080555B191E
:103920001AD0616F002900F07D802046BDE870400C
:10393000084700BF40F60F031A420DD0012340F2A2
:103940002015C1F20003C0F2004506EA030C01EAAB
:10395000050313EB0C0367D1E36E012B05D112F0C5
:10396000100318BF11F010034CD1D3020AD516F47E
:10397000800307D04FF4801101622046BDE87040FB
:10398000FFF7B6BF100606D501F0800006F400036D
:10399000C01840F0A18150066ED511F040006BD0E8
:1039A000206850E8000F216820F0400041E8000244
:1039B000F2B1206850E8000F216820F0400041E893
:1039C0000002002A1FBF206850E8000F216820F085
:1039D00040001CBF41E80002002A09D0206850E8DE
:1039E000000F216820F0400041E80002002AD7D1F2
:1039F0002020C4F888000020A0672046BDE8704061
:103A000000F066BC102101628068400616D4B4F84C
:103A10005C00B4F85E10B4F85E20002A18BF88423B
:103A200040F08A8170BD00BFD30718BF11F48073C6
:103A30002ED1930706F0010E36D440E0D4F8800072
:103A400040F20F42C4F202020168914200F34A813F
:103A50006F22C4F20202914200F3F6813F22C4F2C7
:103A60000202914200F30C821022C4F2020291423F
:103A700000F02B82282225E2100240F14B8111F048
:103A8000804000F047812046BDE87040FFF72CBF22
:103A900001230362D4F8903043F00103C4F890305E
:103AA000930706F0010E0AD5BEF1000F07D00223DE
:103AB0000362D4F8903043F00403C4F89030530705
:103AC0000AD5BEF1000F07D004230362D4F890306A
:103AD00043F00203C4F8903013070CD501F0200323
:103AE00053EA0C0307D008230362D4F8903043F064
:103AF0000803C4F8903013050BD511F0806308D08B
:103B00004FF400630362D4F8903043F02003C4F80C
:103B10009030D4F89030002B3FF484AF12F02002A4
:103B20000AD001F0200106F08052891804D0616F9C
:103B300011B1204688472068D4F89010806800F0C2
:103B4000400001F02801401806D12046FFF7D4FEBE
:103B50000020C4F8900070BD206850E8000F216874
:103B600020F4907041E80002F2B1206850E8000FA4
:103B7000216820F4907041E80002002A1FBF2068ED
:103B800050E8000F216820F490701CBF41E800024B
:103B9000002A09D0206850E8000F216820F49070B6
:103BA00041E80002002AD7D14FF6FE70CEF6FF7032
:103BB000216851E8021F2268014042E80213DBB18C
:103BC000216851E8021F2268014042E80213002BDD
:103BD0001FBF216851E8021F226801401CBF42E854
:103BE0000213002B08D0216851E8021F226801400F
:103BF00042E80213002BDBD1E06E012827D12068B8
:103C000050E8000F216820F0100041E80002F2B1F6
:103C1000206850E8000F216820F0100041E8000201
:103C2000002A1FBF206850E8000F216820F0100014
:103C30001CBF41E80002002A09D0206850E8000FAC
:103C4000216820F0100041E80002002AD7D120208E
:103C5000C4F88C000020E066216860678868400630
:103C600064D5206850E8020F216820F0400041E848
:103C70000202F2B1206850E8020F216820F04000F3
:103C800041E80202002A1FBF206850E8020F2168A5
:103C900020F040001CBF41E80202002A09D0206841
:103CA00050E8020F216820F0400041E80202002A9B
:103CB000D7D1D4F88000C8B345F2A921C0F60001DD
:103CC0000165FCF7B9FF00283FF4ACAED4F88000E2
:103CD000016DBDE870400847A16F00297FF425AE53
:103CE000A0E600BF40F26F42C4F20202914200F32C
:103CF000B78040F23F42C4F20202914200F3C88012
:103D000040F21042C4F20202914200F0DE8040F222
:103D10002842D7E0D0017FF585AEB1F1FF3FC8BFA3
:103D200070BD2046BDE87040FFF74ABD2046BDE8A3
:103D30007040FFF7E1BD00BF401A216851E8001F45
:103D4000226821F4907142E80013F3B1216851E830
:103D5000001F226821F4907142E80013002B1FBF5E
:103D6000216851E8001F226821F490711CBF42E8CD
:103D70000013002B09D0216851E8001F226821F4AC
:103D8000907142E80013002BD7D14FF6FE71CEF6AA
:103D9000FF71226852E8022F23680A4043E8022696
:103DA000DEB1226852E8022F23680A4043E8022667
:103DB000002E1FBF226852E8022F23680A401CBF52
:103DC00043E80226002E08D0226852E8022F23681A
:103DD0000A4043E80226002EDBD12021C4F88C10D3
:103DE0000021E1666167216851E8001F226821F027
:103DF000100142E80013F3B1216851E8001F226866
:103E000021F0100142E80013002B1FBF216851E888
:103E1000001F226821F010011CBF42E80013002B94
:103E200009D0216851E8001F226821F0100142E802
:103E30000013002BD7D181B2022020672046BDE8B5
:103E40007040FFF7B9BC00BF9F22C4F2020291424A
:103E500028DC7022C4F20202914236D0882231E07E
:103E600040F29F42C4F20202914223DC40F27042CF
:103E7000C4F20202914228D040F2884222E000BF00
:103E80004022C4F2020291421FD058221AE000BF21
:103E900040F24042C4F20202914216D040F258422F
:103EA00010E000BFA022C4F2020291420DD0B8225D
:103EB00008E000BF40F2B842C4F20202914204D0CE
:103EC00040F2A042C4F20202914249688AB2002A3A
:103ED0003FF4A8ADB4F85C309A42BFF4A3ADA4F8A7
:103EE0005E10C069B0F5807F00F0A980206850E8BE
:103EF000000F216820F4807041E80002F2B12068D0
:103F000050E8000F216820F4807041E80002002A88
:103F10001FBF206850E8000F216820F480701CBF8C
:103F200041E80002002A09D0206850E8000F21680B
:103F300020F4807041E80002002AD7D1206850E8C0
:103F4000020F216820F0010041E80202F2B120686E
:103F500050E8020F216820F0010041E80202002A27
:103F60001FBF206850E8020F216820F001001CBF2D
:103F700041E80202002A09D0206850E8020F2168B7
:103F800020F0010041E80202002AD7D1206850E861
:103F9000020F216820F0400041E80202F2B12068DF
:103FA00050E8020F216820F0400041E80202002A98
:103FB0001FBF206850E8020F216820F040001CBF9E
:103FC00041E80202002A09D0206850E8020F216867
:103FD00020F0400041E80202002AD7D12020C4F896
:103FE0008C000020E066206850E8000F216820F077
:103FF000100041E80002F2B1206850E8000F21688B
:1040000020F0100041E80002002A1FBF206850E89D
:10401000000F216820F010001CBF41E80002002AB8
:1040200009D0206850E8000F216820F0100041E816
:104030000002002AD7D1D4F88000FCF765FB0220EB
:104040002067B4F85C00B4F85E10401A81B22046D4
:10405000BDE87040FFF7B0BB10B5B0B10446D0F872
:10406000880028B9002084F88400204600F028F851
:104070002420C4F888002068016821F00101016053
:10408000204601F019F9012802D1012010BD00BF1E
:10409000A06A10B1204600F0DBFF2068416821F4DF
:1040A00090414160816821F02A018160016841F0FE
:1040B000010101602046BDE8104001F039B8000060
:1040C000B0B5B8B000210446CDE93611CDE93411C0
:1040D000339102A8C021FCF7C7F940F6FF712068B0
:1040E000C4F2010188423FDC44F20041C4F2000105
:1040F000884200F0818044F60001C4F20001884249
:1041000040F0E28002A80024039402250295FDF706
:1041100047FF08B1FCF760FA44F2E040C5F6020040
:10412000816841F480218160816801F480210191DE
:104130000199016841F0080101600068002100F068
:1041400008000190C5F6020101984FF44070CDE9D6
:1041500033050720379001F5406033A9CDE9354498
:10416000FCF7DEFE38B0B0BD41F20041C4F20101FF
:10417000884279D041F20001C4F20101884240F046
:10418000A3800120029002A800240394FDF708FFF9
:1041900008B1FCF721FA44F2E040C5F602000169DB
:1041A00041F010010161016901F0100101910199D3
:1041B000016841F0020101600068002100F0020086
:1041C0000190C5F6020101984FF44040339002205F
:1041D0003694CDE934040420379001F5806033A98A
:1041E000FCF79EFE252000210022FDF72DFD252055
:1041F000FDF716FD38B0B0BD02A8002403940225D7
:104200000295FDF7CDFE08B1FCF7E6F944F2E04077
:10421000C5F60200816841F400318160816801F4D3
:10422000003101910199016841F0010101600068CC
:1042300033A900F00100019001980C20CDE933056D
:10424000072037900020C5F60200CDE93544FCF781
:1042500067FE262000210022FDF7F6FC2620FDF750
:10426000DFFC38B0B0BD00BF0120029002A80024DE
:104270000394FDF795FE08B1FCF7AEF944F2E04077
:10428000C5F60200016941F020010161016901F0F8
:10429000200101910199016841F004010160006869
:1042A000002100F004000190C5F602010198C02031
:1042B000339002203694CDE934040720379001F57D
:1042C000006033A9FCF72CFE38B0B0BD0000000040
:1042D0007047000000000000FEE700000000000042
:1042E00040F2E000C2F20040FCF75EBF00000000B8
:1042F00070B5044600688369DB0603D40021002200
:1043000069E000BF0E461021C161816989065ED453
:10431000711C52D015463EBBFCF7F2FE2068426885
:1043200094F8421083691B040CD512F4804209D121
:10433000202907D0416841F480414160FCF7E0FE4C
:10434000054600BF20688169890605D4FCF7D8FEC0
:10435000401B1A28F6D328E081698906DCD536E0AF
:1043600020688169890632D4FCF7CAFE401BB0423E
:10437000F6D92068426894F8421083691B040BD573
:1043800012F4804208D1202906D0416841F48041CE
:104390004160FCF7B5FE0546206880698006DFD4E1
:1043A000FCF7AEFE401B1A28F6D320680122816973
:1043B000242110E08169890609D48169890606D41F
:1043C000816989065CBF81695FEA8161F2D520213C
:1043D000C161012204218369DE0505D541F0010197
:1043E0004FF48072C26101225E0505D49B050AD498
:1043F00072B9002070BD00BF41F008019A054FF46A
:104400008062C26104D541F002014FF40072C261C2
:104410008269920701D5002282628269D20703D1A4
:10442000826942F0010282614EF600034268CFF6D3
:1044300000631A404260606C08436064202084F886
:104440004100002084F8420084F84000012070BD43
:104450002DE9F041064600680C4687693940091B82
:10446000B1FA81F14909914265D115461F46591C9F
:1044700048D0AFB9FCF744FE306881692140091B80
:10448000B1FA81F14909A94225D080692040001B79
:10449000B0FA80F04009A842ECD00020BDE8F081DD
:1044A000DDF8188008E000BF80692040001BB0FAEA
:1044B00080F04009A8423ED1FCF722FEA0EB0800A4
:1044C000B8423068F0D981692140091BB1FA81F105
:1044D0004909A942E8D1706C40F0200070642020A6
:1044E00086F84100002086F8420086F8400001204E
:1044F000BDE8F08181692140091BB1FA81F14909C8
:10450000A94218D181692140091BB1FA81F14909F9
:10451000A94210D181692140091BB1FA81F14909F1
:10452000A94201BF81692140091BB1FA81F104BF91
:104530004909A942DED00020BDE8F081000000005A
:1045400070B504460068806940073BD415460E46A6
:1045500019B92EE08069400734D4204631462A46F6
:10456000FFF7C6FE60BB2068816989062CD4FCF782
:10457000C7FD401BB0422068ECD981694907E9D4E6
:10458000606C40F020006064202084F8410000202E
:1045900084F84000012070BD20688169890613D429
:1045A000FCF7AEFD206881694907E9D580694007BD
:1045B00008D4002120462A46FFF79AFE0028EBD0B7
:1045C000012070BD002070BD8169490704D5218D8F
:1045D00000291CBF002070BD81690022C9064FF070
:1045E000000102D51022C261042262642022C2614D
:1045F0004EF600064368CFF600663340436084F809
:10460000412084F84210002084F84000012070BD51
:1046100070B5044600688069800635D415460E469C
:1046200019B928E0806980062ED4204631462A46F2
:10463000FFF75EFE30BBFCF763FD401BB042206815
:10464000F0D981698906EDD4606C40F02000606487
:10465000202084F84100002084F8420084F84000C3
:10466000012070BDFCF74CFD206881698906EBD5FF
:104670008069800608D4002120462A46FFF738FECC
:104680000028EFD0012070BD002070BD00000000A8
:1046900070B5044600688069800720D415460E4630
:1046A000481C11D00EBB00BF002120462A46FFF750
:1046B0001FFEA8BBFCF724FD20688169890723D56C
:1046C00080698007F0D50AE04FF0FF3120462A4686
:1046D000FFF70EFE20BB206880698007F4D500201C
:1046E00070BD00BF80698007F9D4204631462A4654
:1046F000FFF7FEFDA0B9FCF703FD401BB0422068A8
:10470000F0D981698907EDD4606C40F020006064C5
:10471000202084F84100002084F8420084F8400002
:10472000012070BD00000000B0B584B00138C0B2F7
:10473000022825D840F2C0050221C2F2004501EB53
:10474000400205F118000123CDE9000140F2E0002C
:104750008021C2F200404FF480340294FCF720FF25
:10476000288B9FED091B00BAC01400EE100AB8EEAA
:10477000C00B20EE010BB7EEC00B04B0B0BD00BF04
:104780009FED030A04B0B0BDFCA9F1D24D62803F99
:10479000000000000000000070B52DED028B84B019
:1047A0009FED2D8A04460138B0EE480AC0B20228B7
:1047B00022D840F2C0064000C2F20046421C02204D
:1047C00006F11801CDE9001040F2E0008021C2F2AC
:1047D000004001234FF480350295FCF7E1FE308B59
:1047E0009FED1B1B00BAC01400EE100AB8EEC00B00
:1047F00020EE010BB7EEC00B032C11D0022C17D00A
:10480000012C07D140F2C000C2F2004090ED001A26
:1048100080EE018AB0EE480A04B0BDEC028B70BD98
:1048200040F2C000C2F2004090ED021A06E000BF64
:1048300040F2C000C2F2004090ED011A80EE018A01
:10484000B0EE480A04B0BDEC028B70BD00BF00BFE3
:10485000F168E388B5F8043F0000000000000000A4
:104860002DE9F04F81B02DED0A8B86B00DF10C0CC7
:1048700040F2E00440F2C00AC2F200448CE80E00AC
:104880008346C2F2004A8021002201232046B0EE76
:10489000428AB0EE61CAB0EE419AB0EE60AAB0EEC4
:1048A00040BA4FF480360AF1180500954FF002081F
:1048B000CDF8048002964FF00109FCF771FE9AF8DA
:1048C000180057469AF81910002200F06F008AF875
:1048D0001B10803007F81A0F802101232046029612
:1048E000CDE90078FCF770FF8021002201232046EB
:1048F000CDE900580296FCF753FE9AF81800002202
:104900009AF819100123CDE9007801F0F801029618
:1049100041EA0020802140EA0B0000BA000C3880F8
:104920002046FCF751FFB7EECC0A11229FED9CCB3D
:1049300001238AED00BA80EE0C0B02968AED01AAE3
:104940008AED029AB7EEC00BCDE90078BCEEC00A42
:1049500010EE100A41093970C0008AF81B0080214E
:104960002046FCF731FFB7EEC80A80211022012350
:10497000CDE9007880EE0C0B0296B7EEC00BBCEED2
:10498000C00A10EE100AC00000BA000C38802046A1
:10499000FCF71AFF8021002201232046CDE90058B0
:1049A0000296FCF7FDFD9AF8180000229AF81910FB
:1049B0000123CDE9007801F0C701029641EA002009
:1049C000039940EAC100802100BA000C38802046DB
:1049D000FCF7FAFE8021002201232046CDE9005891
:1049E0000296FCF7DDFDBAF818004FF63F61002291
:1049F0000123CDE9007800BA029601EA104004993B
:104A000040EA8110802100BA000C38802046FCF773
:104A1000DBFE8021002201232046CDE900580296CA
:104A2000FCF7BEFD9AF818004FF47141059A012376
:104A300001EA00209AF8191040EA42208AF81B1077
:104A4000000A38708021002220460296CDE90078C5
:104A5000FCF7BAFE31E000BF574641F020010022CA
:104A6000012307F81A1F802178702046CDE90078CD
:104A70000296FCF7A9FEB81E8021CDE900080F229E
:104A8000012320460296FCF78BFD17F8020C40F03C
:104A9000200051460F220123029601F81A0F11F847
:104AA000010C48702046CDE900188021FCF78CFEEF
:104AB00009F10109B9F1040F6AD080210022012314
:104AC0002046CDE900580296FCF76AFD1FFA89F2EC
:104AD0009AF818109AF81900012A21D0022ABBD09E
:104AE000032A3BD1574641F010010022012307F869
:104AF0001A1F802178702046CDE900780296FCF7D5
:104B000063FEB81E8021CDE900080F220123204654
:104B10000296FCF745FD17F8020C40F01000B8E7CC
:104B2000574641F040010022012307F81A1F802157
:104B300078702046CDE900780296FCF745FEB81E55
:104B40008021CDE900080F22012320460296FCF7C0
:104B500027FD17F8020C40F040009AE75746002264
:104B60000123029607F81A1F802178702046CDE9AC
:104B70000078FCF729FEB81E8021CDE900080F223D
:104B8000012320460296FCF70BFD17F8020C80E784
:104B900006B0BDEC0A8B01B0BDE8F08F00BF00BFCE
:104BA000FCA9F1D24D62803F80B584B001208DF820
:104BB0000F000DF10F010122CDE9001040F2E000DD
:104BC0009221C2F2004001234FF4803CCDF808C08E
:104BD000FCF7FAFD04B080BD10B584B04FF480300E
:104BE000029040F2E0000121019140F2DC04C2F2A7
:104BF0000040922100220123C2F200440094FCF7FD
:104C0000CFFC20889FED061B40BA00EE100AB8EEDC
:104C1000C00B20EE010BB7EEC00B04B010BD00BFFF
:104C2000000000000000703FFEE7000000000000F0
:104C3000FEE70000000000007047000000000000D8
:104C4000F0B581B044F22C47C5F6020757F8042CA2
:104C500002F00302032A03D1012001B0F0BD00BF1E
:104C6000054657F82C0C0C4620F0806047F82C0CB9
:104C7000FCF746FA064600BF57F82C0C000105D594
:104C8000FCF73EFA801B0228F6D964E057F8040CC2
:104C9000EE6895E80E0020F47C30012C40EA0130EB
:104CA000A2F101016FF35F214FF47E4202EB432238
:104CB00047F8040C92B24FF0FE4302EB01004FF4B0
:104CC000FE012A6901EB064101F4FE0103EB0262D9
:104CD000084402F0FE410844F8603868696920F031
:104CE000C00040EA010038603868A96920F020005F
:104CF00040EA0100386038684FF6F87120F0100083
:104D000038603869EA6920EA01004FF4001140EA8E
:104D1000C2003861386808BF4FF4801140F01000BD
:104D2000002C386008BF4FF4002138680843386011
:104D300057F82C0C40F0806047F82C0CFCF7E0F999
:104D4000044600BF57F82C0C000107D4FCF7D8F933
:104D5000001B0328F6D3032001B0F0BD002001B0F2
:104D6000F0BD000000000000F0B581B044F22C4717
:104D7000C5F6020757F8042C02F00302032A03D1F8
:104D8000012001B0F0BD00BF054657F82C0C0C46C1
:104D900020F0805047F82C0CFCF7B2F9064600BF13
:104DA00057F82C0C800005D5FCF7AAF9801B0228C7
:104DB000F6D964E057F8040CEE6895E80E0020F090
:104DC0007C70012C40EA0150A2F101016FF35F21D8
:104DD0004FF47E4202EB432247F8040C92B24FF0AC
:104DE000FE4302EB01004FF4FE012A6901EB06418C
:104DF00001F4FE0103EB0262084402F0FE410844A4
:104E000078613868696920F4406040EA01003860E0
:104E10003868A96920F4007040EA010038603868F9
:104E20004FF6F87120F480703860B869EA6920EABA
:104E300001004FF0807140EAC200B861386808BFD5
:104E40004FF4000140F48070002C386008BF4FF42C
:104E5000800138680843386057F82C0C40F08050C7
:104E600047F82C0CFCF74CF9044600BF57F82C0C03
:104E7000800007D4FCF744F9001B0328F6D3032075
:104E800001B0F0BD002001B0F0BD00000000000046
:104E90007047000000000000FCF7F6BD00000000B5
:104EA000B0B59CB044F6180409A84C21C5F602041C
:104EB000FBF7DAFA02200025CDE90755CDE90555C3
:104EC000CDE90355CDE90155FCF7FEFE40F22C403B
:104ED0000095C5F60000016821F00101016000683D
:104EE000012100F001000090206861F38F30206004
:104EF000206800F44040009000982068800409D4A5
:104F0000206880045CBF20685FEA804002D420688B
:104F10008004F2D5012009904FF480300A900220DD
:104F20001490CDE9120010210024CDE91510CDE92F
:104F300017000C20199009A8CDE91A44FEF718F8BB
:104F400020B1EFF3108072B6FEE700BF3F20019062
:104F500003200221CDE90204402006904FF4806036
:104F6000CDE9070401A8CDE90444FDF7B9FD28B156
:104F7000EFF3108072B600BFFEE700BF1CB0B0BDFB
:104F80004EF6885042F2000CCEF20000C5F2002C22
:104F9000016841F470010160DCF8000000F00F00CE
:104FA000062806D8DCF80000072161F30300CCF8DE
:104FB000000044F200404EF67F52C5F60200CEF6E5
:104FC000F622016841F001010160002101610368DE
:104FD0001A400260DCF80020120706D5DCF8002039
:104FE000072363F30302CCF8002040F20022816122
:104FF000C161C0F20222016282620022C0F2FF128D
:10500000C26240F28022C0F20112026341638263F5
:10501000C16302644164026822F480220260016676
:1050200041F20000C5F600400068B1EB507F05D1A9
:1050300048F208100121C5F20010016044F200009E
:1050400043F2D201C5F20020016070470000000069
:10505000816ACA070CD18A0715D44A071ED40A07E9
:1050600027D4CA0630D48A0639D44A0655D541E039
:105070000268D0F82CC0536823F4003343EA0C03D1
:1050800053608A07E9D50268D0F830C0536823F42A
:10509000803343EA0C0353604A07E0D50268D0F836
:1050A00034C0536823F4802343EA0C0353600A0797
:1050B000D7D50268D0F838C0536823F4004343EAD8
:1050C0000C035360CA06CED50268D0F83CC0936882
:1050D00023F4805343EA0C0393608A06C5D5026823
:1050E000D0F840C0936823F4005343EA0C03936064
:1050F0004A0612D50268D0F844C0BCF5801F536838
:1051000023F4801343EA0C03536006D1536823F45D
:10511000C00C836C43EA0C035360090658BF704708
:105120000168C06C4A6822F400221043486070474E
:10513000B0B582B004460020C4F89000FBF7E0FF51
:10514000216805460A68120737D54FF4001100227E
:105150006FF07E40009020462B4600F009FB58B3CC
:10516000206850E8000F216820F0800041E800022C
:10517000F2B1206850E8000F216820F0800041E87B
:105180000002002A1FBF206850E8000F216820F0AD
:1051900080001CBF41E80002002A09D0206850E8C6
:1051A000000F216820F0800041E80002002AD7D1DA
:1051B0002020C4F8880062E021680868400765D5AF
:1051C0004FF4800100226FF07E40009020462B4675
:1051D00000F0CEFA002859D0206850E8000F21686E
:1051E00020F4907041E80002F2B1206850E8000F0E
:1051F000216820F4907041E80002002A1FBF206857
:1052000050E8000F216820F490701CBF41E80002B4
:10521000002A09D0206850E8000F216820F490701F
:1052200041E80002002AD7D1206850E8020F216827
:1052300020F0010041E80202F2B1206850E8020FBC
:10524000216820F0010041E80202002A1FBF206807
:1052500050E8020F216820F001001CBF41E8020263
:10526000002A09D0206850E8020F216820F00100D0
:1052700041E80202002AD7D12020C4F88C00032084
:10528000002184F8841002B0B0BD00BF2020C4F813
:105290008800C4F88C000020E0662067002184F8B4
:1052A000841002B0B0BD0000806B0021A0F85E1039
:1052B000A0F85610FEF720BBF0B583B00446006896
:1052C00046F6F31640F6004E22696569D4E90213EA
:1052D0000A43E7690168CCF6FF762A43314011435F
:1052E000C5F6000E394301604168704521F4405114
:1052F00044F2544C41EA03014160A2694FF2FF437A
:105300001CBF216A0A438168C1F2FF131940C5F628
:10531000020C1143816047F2FF72C16AC4F20002BD
:1053200021F00F01656A90424FF0800341EA0501C8
:10533000C16221DD40F6FF71C4F2010188422FDD18
:10534000704500F0FB8041F20041C4F20101884247
:1053500005D041F20001C4F20101884247D1DCF8D6
:105360000010C1F3C202062A80F0F08046F20A0162
:10537000C0F6000139E000BF44F6FF31C4F200017D
:1053800088421BDC44F20041C4F20001884221D073
:1053900044F60001C4F2000188421BD027E000BFA0
:1053A00047F60001C4F20001884213D047F60041DD
:1053B000C4F2000188420DD019E000BF44F600415C
:1053C000C4F20001884205D045F20001C4F2000198
:1053D00088420CD1DCF8001001F00702062A80F0A8
:1053E000B58046F21001C0F600018B181B7870459D
:1053F00040F60010C0F23D0000F0B080B7F5004F5D
:1054000040F04E80402B4FF0010100F2A281DFE816
:1054100013F041001D01A001A0012301A001A00182
:10542000A0012B01A001A001A001A001A001A001E9
:10543000A0013301A001A001A001A001A001A001D1
:10544000A001A001A001A001A001A001A001A00154
:10545000A0014301A001A001A001A001A001A001A1
:10546000A001A001A001A001A001A001A001A00134
:10547000A001A001A001A001A001A001A001A00124
:10548000A001A001A001A001A001A001A001A00114
:10549000A0014101FDF780FC002840F0DA80E9E03E
:1054A000402B4FF0010100F25481DFE813F041007E
:1054B00013015201520119015201520152012101FD
:1054C000520152015201520152015201520129016D
:1054D0005201520152015201520152015201520134
:1054E000520152015201520152015201520139013D
:1054F0005201520152015201520152015201520114
:105500005201520152015201520152015201520103
:1055100052015201520152015201520152015201F3
:1055200052015201520152015201520152013701FE
:10553000FDF732FC002840F0D080DFE0DCF80410FA
:1055400001F00702062A01D286A14EE780237045AA
:1055500040F60010C0F23D007FF450AF9A1E0121CA
:105560001E2A27D8DFE812F02000F5002C00F500F5
:10557000F500F5003400F500F500F500F500F50044
:10558000F500F5003C00F500F500F500F500F5002C
:10559000F500F500F500F500F500F500F500F50063
:1055A000F500F500490000BFFCF7B6FBB0B1656A35
:1055B00023E000BF402B40F0CC804FF400401CE0C3
:1055C0006846FCF7BDFB01980028F0D106E000BF5B
:1055D0006846FCF74DFC01980028E8D10021B8E0AE
:1055E0005CF8540C800649F20000C0F2D03004D5BB
:1055F0005CF8541CC1F3C101C84046F22601626840
:10560000C0F6000131F81510B0FBF1F002EB4201D9
:1056100088424FF00101C0F09C801303984200F2D1
:105620009880010E0023000210EB520041F10001AE
:10563000FAF7A2FE4FF60052A0F54071C0F20F0239
:105640009142C0F08080012183E000BFFDF7D4FBD0
:1056500080B1656A20E000BF6846FCF771FB0198E5
:105660000028F6D106E000BF6846FCF701FC01986F
:105670000028EED100216CE05CF8540C800649F261
:105680000000C0F2D03007D55CF8541CC1F3C10152
:10569000C84001E04FF4004046F22601C0F6000188
:1056A00031F81510B0FBF1F061684A0802EB4000D8
:1056B0004FF6EF72B0FBF1F0A0F11001914207D864
:1056C0004FF6F0710140C0F3420008443BE000BFD8
:1056D00001213EE0FDF790FB80B1656A20E000BF4C
:1056E0006846FCF72DFB01980028F6D106E000BFC4
:1056F0006846FCF7BDFB01980028EED1002128E0A8
:105700005CF8540C800649F20000C0F2D03007D596
:105710005CF8541CC1F3C101C84001E04FF40040E3
:1057200046F226016268C0F6000131F81510B0FBA0
:10573000F1F000EB5200B0FBF2F0A0F110014FF6D7
:10574000EF72914204D82168C860002101E000BFD7
:1057500001214FF00110A0660020C4E91D00084699
:1057600003B0F0BD0204081020400000000000005B
:105770002DE9F041044600680D46C7693940491BD0
:10578000B1FA81F14909914229D1DDF81880B8F1C7
:10579000000F27D0164618F1010129D1C16929400F
:1057A000491BB1FA81F14909B14218D1C1692940B7
:1057B000491BB1FA81F14909B14201BFC1692940D0
:1057C000491BB1FA81F104BF4909B14207D1C1694E
:1057D0002940491BB1FA81F14909B142DED00020CC
:1057E000BDE8F081FBF78CFC0320BDE8F08100BF31
:1057F0001F4607E0C0692840401BB0FA80F040090E
:10580000B042ECD1FBF77CFCC01B404500F2968017
:10581000206801684907EDD5C169090700F1928048
:10582000C1690905E6D54FF400610162206850E8BE
:10583000000F216820F4907041E80002F2B1206866
:1058400050E8000F216820F4907041E80002002A1F
:105850001FBF206850E8000F216820F490701CBF23
:1058600041E80002002A09D0206850E8000F2168B2
:1058700020F4907041E80002002AD7D14FF6FE7064
:10588000CEF6FF70216851E8021F2268014042E80D
:105890000213DBB1216851E8021F2268014042E88F
:1058A0000213002B1FBF216851E8021F226801402C
:1058B0001CBF42E80213002B08D0216851E8021FE8
:1058C0002268014042E80213002BDBD1E06E012880
:1058D00027D1206850E8000F216820F0100041E82F
:1058E0000002F2B1206850E8000F216820F010009B
:1058F00041E80002002A1FBF206850E8000F21681D
:1059000020F010001CBF41E80002002A09D02068E6
:1059100050E8000F216820F0100041E80002002A42
:10592000D7D12020C4F88C000021E1666167C4F85B
:105930009000032084F88410BDE8F0810320BDE8C6
:10594000F08100BF08210162206850E8000F216843
:1059500020F4907041E80002F2B1206850E8000F96
:10596000216820F4907041E80002002A1FBF2068DF
:1059700050E8000F216820F490701CBF41E800023D
:10598000002A09D0206850E8000F216820F49070A8
:1059900041E80002002AD7D14FF6FE70CEF6FF7024
:1059A000216851E8021F2268014042E80213DBB17E
:1059B000216851E8021F2268014042E80213002BCF
:1059C0001FBF216851E8021F226801401CBF42E846
:1059D0000213002B08D0216851E8021F2268014001
:1059E00042E80213002BDBD1E06E012827D12068AA
:1059F00050E8000F216820F0100041E80002F2B1E9
:105A0000206850E8000F216820F0100041E80002F3
:105A1000002A1FBF206850E8000F216820F0100006
:105A20001CBF41E80002002A09D0206850E8000F9E
:105A3000216820F0100041E80002002AD7D1202080
:105A4000C4F88C000020E06660670821C4F890105C
:105A500084F884000120BDE8F0810000000000000F
:105A600040F2BC10C2F20040FDF74ABF0000000047
:105A700040F25020C2F20040FDF742BF000000009B
:105A8000FEE700000000000086B040F200494FF041
:105A9000010AC5F60209CDF804A0FCF791F848F216
:105AA0001F70039040F20110049001A8002402949A
:105AB000FCF756F80420FCF793F8FBF7F5FF9FED91
:105AC000CB0AF1EE001AB1EE042AF0EE400AB0EE75
:105AD000401A0320042104220323FEF7C1FEFFF72E
